:100000000C9458000C9480000C9480000C94800098
:100010000C9480000C9480000C9480000C94800060
:100020000C9480000C9480000C9480000C94400888
:100030000C9480000C9480000C9480000C94800040
:100040000C949E070C9480000C940E080C94E80706
:100050000C9480000C9480000C9480000C94800020
:100060000C947F060C9480000000000025002800FE
:100070002B00040404040404040402020202020229
:10008000030303030303010204081020408001025C
:1000900004081020010204081020000000080002DB
:1000A0000100000304070000000000000000FC083D
:1000B00011241FBECFEFD8E0DEBFCDBF11E0A0E01E
:1000C000B1E0E4E9F3E202C005900D92AA32B10773
:1000D000D9F723E0AAE2B1E001C01D92AB3EB2071E
:1000E000E1F710E0C8E5D0E004C02197FE010E94CE
:1000F000660EC735D107C9F70E9474090C94C81160
:100100000C94000020917802260F3327331F2132F0
:100110003105ECF42091E502FC0190E080E0243010
:1001200069F082E00895A09178022191AC014A5AC9
:100130005D4FA40FB52FB11D2C930196861798F330
:1001400080917802680F6093780280E0089581E0E2
:100150000895089508950895E0919E0280919D026A
:10016000E81730F4F0E0E156FD4F808190E008950B
:100170008FEF9FEF089590919E0280919D022FEF47
:100180003FEF981748F4E92FF0E0E156FD4F20814A
:1001900030E09F5F90939E02C901089580919D0277
:1001A00090919E02891B990B0895CF92DF92EF9256
:1001B000FF920F931F93CF93DF937C01CB018A01B2
:1001C0002091EB02222389F0EB016B01C40ED51EB6
:1001D000CC15DD0569F06991D701ED91FC91019095
:1001E000F081E02DC7010995F3CF642F0E948200B2
:1001F000C801DF91CF911F910F91FF90EF90DF9099
:10020000CF900895CF93DF931F92CDB7DEB7698368
:100210002091EB022223F9F020910E03203258F0B6
:1002200021E030E0FC013383228390E080E00F90F6
:10023000DF91CF9108958091EC02E82FF0E0E35137
:10024000FD4F998190838F5F8093EC0280930E0322
:1002500081E090E0ECCF61E0CE0101960E94820047
:10026000F7CF90E0FC01E656FF4F2491FC01EA57DE
:10027000FF4F3491FC01EE58FF4FE491EE23C9F09B
:10028000222339F0233001F1A8F4213019F1223072
:1002900029F1F0E0EE0FFF1FE859FF4FA591B4914F
:1002A0008FB7F894EC91611126C030953E233C93B2
:1002B0008FBF08952730A9F02830C9F0243049F7BE
:1002C000809180008F7D03C0809180008F77809324
:1002D0008000DFCF84B58F7784BDDBCF84B58F7D81
:1002E000FBCF8091B0008F778093B000D2CF809108
:1002F000B0008F7DF9CF3E2BDACF1092E50281E07E
:100300008093E4021092BF0261E082E10E94310119
:1003100061E083E10E943101E9EBF0E080818E7FB2
:10032000808380818D7F808388E48093B80085E41A
:100330008093BC000895CF93DF9391E09093550292
:100340008823B9F0C091B800D091BA008091BC0068
:100350008A7B8093BC0060E082E10E94310160E012
:1003600083E10E9431010E947D01D093BA00C093C5
:10037000B800DF91CF9108953FB7F8948091510272
:1003800090915202A0915302B091540226B5A89BBD
:1003900005C02F3F19F00196A11DB11D3FBFBA2F17
:1003A000A92F982F8827BC01CD01620F711D811DD7
:1003B000911D42E0660F771F881F991F4A95D1F75C
:1003C00008958F929F92AF92BF92CF92DF92EF9259
:1003D000FF920F931F93CF93DF93D0910E03D132EF
:1003E00008F0D7C0182FC0910D030E94BC016B010B
:1003F0007C018091E50281116BC082E08093E5026F
:100400001093E4028FEF8093E3021092E202D09304
:10041000E102ADEEB2E0E1ECF2E080E0D81391C091
:100420001092C0028091C002CC0FC82BC093C002B2
:100430008091BF02813009F088C01092BF020E94F3
:10044000BC016B017C018091C0028093BB00809154
:10045000E7029091E802A091E902B091EA02892BAB
:100460008A2B8B2BA1F00E94BC010091E702109116
:10047000E8022091E9023091EA026C197D098E09A7
:100480009F09061717072807390708F442C080910B
:10049000BC0083FDD8CF85EC8093BC000E94BC01DA
:1004A0006B017C018091E502823009F450C080919B
:1004B000E3028F3F09F46FC08091E302803209F4B8
:1004C0006CC08091E302803309F469C084E026C0E7
:1004D0008091E7029091E802A091E902B091EA02CE
:1004E000892B8A2B8B2B09F484CF0E94BC0180902E
:1004F000E7029090E802A090E902B090EA026C193D
:100500007D098E099F0986169706A806B90608F088
:1005100070CF8091E6020E949B0185E01092EC0270
:1005200010920E031092EB02DF91CF911F910F9169
:10053000FF90EF90DF90CF90BF90AF909F908F9003
:1005400008959D9191938F5F69CF85EEA5CF80919E
:10055000E7029091E802A091E902B091EA02892BAA
:100560008A2B8B2B09F49ECF0E94BC010091E702DD
:100570001091E8022091E9023091EA026C197D099C
:100580008E099F09061717072807390708F08ACF31
:10059000C0CF81E0C3CF80E0C1CF82E0BFCF83E096
:1005A000BDCF1F93CF93DF93162FC0EED3E0A98169
:1005B000BA81988121E02093EB0290930D03109271
:1005C000EC0210920E03ED91FC9111970190F081D5
:1005D000E02D682FCD01099589819A81DC01ED918B
:1005E000FC910190F081E02D612F099581E0DF9170
:1005F000CF911F910C94E1018F929F92AF92BF9285
:10060000CF92DF92EF92FF926B017C010E94BC01BE
:100610004B015C01C114D104E104F104B9F00E9462
:10062000BC01681979098A099B09683E73408105F4
:10063000910580F321E0C21AD108E108F10888EEA3
:10064000880E83E0981EA11CB11CE4CFFF90EF90B0
:10065000DF90CF90BF90AF909F908F900895AF9212
:10066000BF92CF92DF92EF92FF920F931F93CF939F
:10067000DF936C017B018B01040F151FEB015E0101
:10068000AE18BF08C017D10759F06991D601ED9196
:10069000FC910190F081E02DC6010995892B79F735
:1006A000C501DF91CF911F910F91FF90EF90DF90E7
:1006B000CF90BF90AF90089590E080E00895FC0146
:1006C000538D448D252F30E0842F90E0821B930BB7
:1006D000541710F0CF96089501970895FC01918D5D
:1006E000828D981761F0A28DAE0FBF2FB11D5D9660
:1006F0008C91928D9F5F9F73928F90E008958FEF02
:100700009FEF0895FC01918D828D981731F0828DB5
:10071000E80FF11D858D90E008958FEF9FEF08950C
:10072000FC01918D228D892F90E0805C9F4F821B70
:1007300091098F73992708958FE093E00E949003A9
:1007400021E0892B09F420E0822F089580E090E0D9
:10075000892B29F00E949C0381110C9400000895BC
:10076000FC01A48DA80FB92FB11DA35ABF4F2C9126
:10077000848D90E001968F739927848FA689B7891D
:100780002C93A089B1898C91837080648C93938D14
:10079000848D981306C00288F389E02D80818F7DB7
:1007A00080830895EF92FF920F931F93CF93DF936F
:1007B000EC0181E0888F9B8D8C8D98131AC0E8899D
:1007C000F989808185FF15C09FB7F894EE89FF896C
:1007D0006083E889F98980818370806480839FBF0A
:1007E00081E090E0DF91CF911F910F91FF90EF900A
:1007F0000895F62E0B8D10E00F5F1F4F0F7311271A
:10080000E02E8C8D8E110CC00FB607FCFACFE88954
:10081000F989808185FFF5CFCE010E94B003F1CF29
:10082000EB8DEC0FFD2FF11DE35AFF4FF0829FB7C8
:10083000F8940B8FEA89FB8980818062CFCFCF93B8
:10084000DF93EC01888D8823B9F0AA89BB89E889F8
:10085000F9898C9185FD03C0808186FD0DC00FB69E
:1008600007FCF7CF8C9185FFF2CF808185FFEDCF1C
:10087000CE010E94B003E9CFDF91CF910895DC0152
:10088000ED91FC910190F081E02D09940F931F935D
:10089000CF93DF938B01C0EED3E0A981BA81988119
:1008A00021E02093EB0290930D031092EC02109242
:1008B0000E0394E0899FB00111246A5F7F4FED9190
:1008C000FC9111970190F081E02DCD01099570E028
:1008D00060E089819A810E943F0470E060E0898134
:1008E0009A810E943F04B80189819A810E943F0445
:1008F000612F70E089819A810E943F0481E0DF913D
:10090000CF911F910F910C94E101CF93DF93CFE230
:10091000D1E0E991F9916081718182850E9446045C
:1009200081E0C534D807A9F7DF91CF910895FC0184
:100930006281738182850C944604CF93DF93EC012E
:100940008985882379F08F819E819923D1F06A81EE
:100950007B810E944604198664E670E080E090E0A6
:100960000E94FC028F819E81992371F068817981B8
:100970000E9446048E8191E089278E83DF91CF917A
:10098000089568817981E5CF6A817B81F1CF8F926B
:100990009F92AF92BF92CF92DF92EF92FF920F930E
:1009A0001F93CF936B017C0120E030E040E85FE3D0
:1009B0000E94D90E87FDDEC020E030EC4AE555E408
:1009C000C701B6010E94311018163CF4C12C30EC5E
:1009D000D32E3AE5E32E35E4F32E6091E3037091D4
:1009E000E4038091E5039091E6030E947F0F4B01A1
:1009F0005C0120E030E040E855E4C701B6010E9408
:100A000036109B01AC01C501B4010E94DE0E20E04E
:100A100030E040E05FE30E946D0E20E030E040E80F
:100A20005FE30E946C0E6B017C0120E030E040E44B
:100A300050E40E94D90E87FDA4C020E030E04FE7CB
:100A400053E4C701B6010E943110181634F4C12CCA
:100A5000D12C9FE7E92E93E4F92EC701B6010E943D
:100A6000500FF62E8091E1039091E2032091E00374
:100A700031E03093EB0220930D031092EC021092C0
:100A80000E03DC01ED91FC910190F081E02D60E01E
:100A9000099581E00E94E101C091E0030E94BC0140
:100AA0004B015C018091E502811171C081E080936E
:100AB000E5028093E4029FEF9093E3021092E2023A
:100AC0001092E1028093C0028091C002CC0FC82B2B
:100AD000C093C0028091BF02813009F0B2C0109271
:100AE000BF020E94BC014B015C018091C002809357
:100AF000BB008091E7029091E802A091E902B091D9
:100B0000EA02892B8A2B8B2BA1F00E94BC01009159
:100B1000E7021091E8022091E9023091EA02681997
:100B200079098A099B09061717072807390708F466
:100B30004FC08091BC0083FDD8CF85EC8093BC0072
:100B40000E94BC014B015C018091E502813009F4F7
:100B50007AC08091E202811198C08091E202E1ECBA
:100B6000F2E0AFE9B2E090E09817B9F121912D934E
:100B70009F5FFACFC12CD12C20E8E22E2FE3F22E7A
:100B80002CCFC12CD12C80E4E82EFE2C66CF809196
:100B9000E7029091E802A091E902B091EA02892B64
:100BA0008A2B8B2B09F47ECF0E94BC010091E702B7
:100BB0001091E8022091E9023091EA02681979095E
:100BC0008A099B09061717072807390708F06ACF13
:100BD0008091E6020E949B0180E010929E02809329
:100BE0009D028091E1039091E203DC01ED91FC9183
:100BF0000284F385E02D0995C82F682F6F76606118
:100C000080E00E94D1026F2D8EEF0E94D1026C2FE6
:100C100080E00E94D10265E070E080E090E00E94F8
:100C2000FC026C2F606A80E0CF911F910F91FF90C2
:100C3000EF90DF90CF90BF90AF909F908F900C94EB
:100C4000D10285EE7BCF8091E7029091E802A091DE
:100C5000E902B091EA02892B8A2B8B2B09F474CF1D
:100C60000E94BC010091E7021091E8022091E90284
:100C70003091EA02681979098A099B090617170752
:100C80002807390708F060CFA3CF81E068CF85ED52
:100C90008093BC008091E7029091E802A091E90264
:100CA000B091EA020796A11DB11D23E0B695A79564
:100CB000979587952A95D1F72091BC0024FD03C014
:100CC0001092E50208954091E7025091E802609188
:100CD000E9027091EA02452B462B472B69F30097F6
:100CE000A105B10541F025E32A95F1F70000019730
:100CF000A109B109E1CF8091E6020C949B011F92FA
:100D00000F920FB60F9211242F933F934F935F933F
:100D10006F937F938F939F93AF93BF93EF93FF93C3
:100D20008091B900887F803609F44AC0F0F5883296
:100D300009F4A7C018F5803109F49BC0B8F48823E2
:100D400009F4F9C0883009F494C0FF91EF91BF9184
:100D5000AF919F918F917F916F915F914F913F9153
:100D60002F910F900FBE0F901F901895883109F4A6
:100D700088C0803251F78093E30214C0803409F4B4
:100D80009DC040F48033B9F38833F9F68093E302D1
:100D900085ECB0C0803509F485C0883509F496C06B
:100DA000883499F60E944706D0CF883909F48CC060
:100DB00038F5883729F050F4883611F0803729F655
:100DC00083E08093E50210929C0257C0883809F4B2
:100DD0007BC0803919F0803809F0B7CF80919C0230
:100DE000803208F071C0E0919C0281E08E0F809308
:100DF0009C028091BB00F0E0E458FD4F80833DC031
:100E0000803B39F0E0F4803A09F479C0883A09F07F
:100E10009CCF84E08093E5021092790210927802D0
:100E2000E0917602F0917702099580917802811124
:100E30000FC081E0809378021092560209C0803C76
:100E400009F4A6CF883C09F4A3CF883B09F07DCFF5
:100E5000E091790281E08E0F80937902F0E0EA5A06
:100E6000FD4F80818093BB00909179028091780240
:100E700029C08091C0028093BB0085EC8093BC00A8
:100E800064CF9091E2028091E102981758F5E091C9
:100E9000E20281E08E0F8093E202F0E0EF53FD4F1B
:100EA0008081E9CFE091E20281E08E0F8093E2023F
:100EB0008091BB00F0E0EF53FD4F80839091E20200
:100EC0008091E1029817C8F285E8D8CFE091E2025C
:100ED00081E08E0F8093E2028091BB00F0E0EF533F
:100EE000FD4F80838091E40281115CCF81E080938B
:100EF000BF0284EA8093BC001092E50226CF85EC05
:100F00008093BC001092E50280919C02803230F404
:100F1000E0919C02F0E0E458FD4F108260919C0249
:100F200070E0E0917A02F0917B028CE792E0099503
:100F300010929C020ACF1092E30234CF1F920F92BC
:100F40000FB60F9211242F933F938F939F93AF93DC
:100F5000BF9380914D0290914E02A0914F02B091AB
:100F6000500230914C0223E0230F2D3758F50196A3
:100F7000A11DB11D20934C0280934D0290934E020F
:100F8000A0934F02B093500280915102909152026F
:100F9000A0915302B09154020196A11DB11D8093FE
:100FA000510290935202A0935302B0935402BF9106
:100FB000AF919F918F913F912F910F900FBE0F9006
:100FC0001F90189526E8230F0296A11DB11DD2CFC0
:100FD0001F920F920FB60F9211242F933F934F93AE
:100FE0005F936F937F938F939F93AF93BF93EF9391
:100FF000FF938FE093E00E94B003FF91EF91BF91C8
:10100000AF919F918F917F916F915F914F913F91A0
:101010002F910F900FBE0F901F9018951F920F9257
:101020000FB60F9211242F938F939F93EF93FF93FB
:10103000E0911F03F09120038081E0912503F0915E
:10104000260382FD1BC09081809128038F5F8F73E0
:1010500020912903821741F0E0912803F0E0E15F3D
:10106000FC4F958F80932803FF91EF919F918F9173
:101070002F910F900FBE0F901F9018958081F4CF85
:101080001F920F920FB60F9211242F933F934F93FD
:101090005F936F937F938F939F93AF93BF93CF9300
:1010A000DF93EF93FF9380912A01C091D003D0E0AA
:1010B00087FF24C0109285001092840080912A013D
:1010C0008F5F80932A0180912A01082E000C990BD2
:1010D0008C179D0724F480912A018C30C4F18091F3
:1010E000840090918500049680349C4908F47AC06D
:1010F0008091840090918500049676C080912A01A9
:10110000082E000C990B8C179D07C4F6E0912A015C
:101110008E2FEE0F990BFC01EE0FFF1FE80FF91F4A
:10112000E455FC4F808186FFC9CFE0912A018E2FC4
:10113000EE0F990BFC01EE0FFF1FE80FF91FE455AE
:10114000FC4F808160E08F730E943101B7CF209106
:10115000840030918500E0912A018E2FEE0F990BCB
:10116000FC01EE0FFF1FE80FF91FE455FC4F8181D2
:101170009281820F931F9093890080938800E09161
:101180002A018E2FEE0F990BFC01EE0FFF1FE80FC7
:10119000F91FE455FC4F808186FF11C0E0912A01C0
:1011A0008E2FEE0F990BFC01EE0FFF1FE80FF91FBA
:1011B000E455FC4F808161E08F730E943101FF9103
:1011C000EF91DF91CF91BF91AF919F918F917F91DF
:1011D0006F915F914F913F912F910F900FBE0F90A4
:1011E0001F90189580E49CE9909389008093880073
:1011F0008FEF80932A01E3CF1092D4031092D30390
:1012000088EE93E0A0E0B0E08093D5039093D603FE
:10121000A093D703B093D8032AE031E03093D203F0
:101220002093D103109212031092110380931303A1
:1012300090931403A0931503B09316038CE191E0EF
:101240009093100380930F0385EC90E090931C0320
:1012500080931B0384EC90E090931E0380931D0306
:1012600080EC90E09093200380931F0381EC90E04A
:10127000909322038093210382EC90E090932403C7
:101280008093230386EC90E09093260380932503BC
:10129000109228031092290310922A0310922B0314
:1012A00080E48093E00381ED93E09093E2038093E8
:1012B000E1038091D0038C3098F491E0980F9093E3
:1012C000D0038093DD0390E0FC01EE0FFF1FE80FD9
:1012D000F91FE455FC4F88EB9BE0928381830895CE
:1012E0008FEF8093DD030895CF93DF9300D01F929B
:1012F000CDB7DEB7789484B5826084BD84B5816053
:1013000084BD85B5826085BD85B5816085BD8091D0
:101310006E00816080936E00109281008091810048
:101320008260809381008091810081608093810040
:10133000809180008160809380008091B100846002
:101340008093B1008091B00081608093B000809163
:101350007A00846080937A0080917A008260809322
:101360007A0080917A00816080937A0080917A007F
:10137000806880937A001092C100E0911F03F09181
:10138000200382E08083E0911B03F0911C03108214
:10139000E0911D03F0911E038FEC808310922703D0
:1013A000E0912303F091240386E08083E091210300
:1013B000F0912203808180618083E0912103F0918C
:1013C0002203808188608083E0912103F0912203D1
:1013D000808180688083E0912103F09122038081E5
:1013E0008F7D808360E880E00E94D1026AE070E037
:1013F00080E090E00E94FC0210929E0210929D02FA
:101400001092EC0210920E030E947D0189EA90E096
:1014100090937702809376028AEA90E090937B0221
:1014200080937A0260E880E00E94D1026AE070E076
:1014300080E090E00E94FC0260E070E08AE794E4C3
:101440000E94C70480EC9CEFABE9B1E08093E3031A
:101450009093E403A093E503B093E60360E070E0AB
:1014600088E492E40E94C7048AE090E00E94A310FE
:10147000FC0111868EE090E0908787839CE2E92E44
:10148000FF24F394F182E08228ECC22ED12CD38287
:10149000C2820AEF10E015830483F0932C01E093DD
:1014A0002B018AE090E00E94A310FC0111868FE0DE
:1014B00090E09087878380E991E09183808382ED3B
:1014C00090E09383828381E391E095838483F0931A
:1014D0002E01E0932D018CE090E00E94A310FC010E
:1014E00084E690E0958384831782168232E0A32EEF
:1014F000B12CB186A0861386128688E592E091838E
:1015000080838AE991E093838283F0933001E093B2
:101510002F018CE090E00E94A310FC0184E690E093
:1015200095838483178216828DE090E0918780876F
:1015300081E090E09387828786E990E091838083C1
:1015400013830283F0933201E09331018CE090E049
:101550000E94A310FC0184E690E0958384831782A7
:10156000168243E0842E912C91868086B386A286D3
:1015700088E790E0918380835EE5652E77247394FD
:1015800073826282F0933401E09333018CE090E047
:101590000E94A310FC0184E690E095838483178267
:1015A000168264E0A62EB12CB186A0869386828630
:1015B00082E390E09183808313830283F09336016A
:1015C000E09335018CE090E00E94A310FC0184E6DA
:1015D00090E0958384831782168275E0872E912C84
:1015E00091868086B386A28691838083D382C282CD
:1015F000F0933801E09337018CE090E00E94A31053
:10160000FC0184E690E09583848317821682A6E02D
:10161000AA2EB12CB186A086938682869183808380
:10162000D382C282F0933A01E09339018CE090E0DA
:101630000E94A310FC0184E690E0958384831782C6
:101640001682B7E0CB2ED12CD186C086B386A28677
:1016500091838083F382E282F0933C01E0933B012B
:101660008CE090E00E94A310FC0184E690E095835A
:1016700084831782168289E090E091878087D386E1
:10168000C2868EE492E091838083F382E282F093BB
:101690003E01E0933D018CE090E00E94A310FC012C
:1016A00084E690E095838483178216828AE0E82E90
:1016B000F12CF186E08688E090E09387828784E6CB
:1016C00090E09183808313830283F0934001E09341
:1016D0003F018CE090E00E94A310FC0184E690E0C2
:1016E00095838483178216820BE010E011870087B0
:1016F000F386E28692E8E92EF12CF182E0828AE418
:1017000091E093838283F0934201E09341018CE066
:1017100090E00E94A310FC0184E690E0958384830E
:10172000178216828CE090E091878087138702876A
:10173000F182E08273826282F0934401E09343017C
:101740000E948504E0912B01F0912C01FB83EA8338
:101750006081718187810E944604EA81FB81168243
:1017600080912D0190912E019B838A83FC016081E1
:10177000718187810E944604EA81FB81168268E8B4
:1017800073E180E090E00E94FC0227E0E22EF12C61
:1017900033E0432E512C0AE010E04CE0242E312C93
:1017A00052E5652E53E0752E68E0C62ED12C85E0FB
:1017B000A82EB12CF0914B02F983F1111FC2809138
:1017C00043028111A9C110924B0188E592E09093E8
:1017D00048018093470150924A014092490110927A
:1017E000510190934E0180934D01509250014092CF
:1017F0004F0110925701909354018093530110931D
:1018000056010093550110925D0190935A01809307
:10181000590110935C0100935B0110926301909356
:10182000600180935F013092620120926101109209
:10183000690190936601809365013092680120925E
:10184000670110926F0170926C0160926B011093AE
:101850006E0100936D011092750190937201809357
:101860007101D0927401C092730110927B01909328
:10187000780180937701D0927A01C0927901109219
:10188000810190937E0180937D01F0928001E0922E
:101890007F01109287019093840180938301F092DD
:1018A0008601E092850110928D0190938A018093C8
:1018B0008901B0928C01A0928B01109293019093B8
:1018C000900180938F01B0929201A09291011092A9
:1018D0009901709296016092950150929801409200
:1018E000970110929F0190939C0180939B0110930C
:1018F0009E0100939D011092A5019093A2018093F7
:10190000A1011093A4010093A3011092AB01909345
:10191000A8018093A701D092AA01C092A9011092B8
:10192000B1019093AE018093AD01D092B001C0920D
:10193000AF011092B7019093B4018093B301F0927C
:10194000B601E092B5011092BD019093BA01809367
:10195000B901F092BC01E092BB011092C3017092F8
:10196000C0016092BF01B092C201A092C101109269
:10197000C9019093C6018093C5011093C8010093DB
:10198000C7011092CF019093CC018093CB011093AB
:10199000CE010093CD011092D5019093D201809396
:1019A000D101D092D401C092D3011092DB01909367
:1019B000D8018093D701D092DA01C092D901109258
:1019C000E1019093DE018093DD01F092E001E0926D
:1019D000DF011092E7019093E4018093E301F0921C
:1019E000E601E092E5011092ED017092EA01609249
:1019F000E901B092EC01A092EB011092F3019093F7
:101A0000F0018093EF015092F2014092F1011092A7
:101A1000F9019093F6018093F5015092F8014092FC
:101A2000F7011092FF019093FC018093FB0110934A
:101A3000FE010093FD011092050290930202809333
:101A40000102109304020093030210920B02909380
:101A500008028093070230920A0220920902109233
:101A6000110290930E0280930D0230921002209288
:101A70000F021092170270921402609213021093D8
:101A800016020093150210921D0290931A02809381
:101A90001902D0921C02C0921B0210922302909352
:101AA000200280931F02D0922202C0922102109243
:101AB00029029093260280932502F0922802E09258
:101AC000270210922F0290932C0280932B02F09207
:101AD0002E02E0922D0210923502909332028093F2
:101AE0003102B0923402A092330210923B029093E2
:101AF000380280933702B0923A02A09239021092D3
:101B0000410270923E0260923D0250924002409229
:101B10003F0291E0909343028090450190904601EE
:101B2000E9E28E16910419F4F1E0F0934B0226E0FD
:101B3000289DF001299DF00D1124E95BFE4F608185
:101B40007181072E000C880B990B0E94FC028BE21E
:101B50008816910411F00E948504809145019091AE
:101B6000460126E0289FF001299FF00D1124E95B32
:101B7000FE4F82809380F4013297EC30F10590F4AF
:101B8000EC53F24F0C94660E0B0E170E1C0E210E2A
:101B9000260E2B0ED00D300E390E420E4B0E120EAD
:101BA00081E0898364EF71E080E090E00E94FC02B4
:101BB000C4010D964B97C8F48928B9F08981882310
:101BC00009F472C080902B0190902C01F401648183
:101BD000758187810E94460421E0F401218780916C
:101BE0002D0190912E010E949D04809145019091BC
:101BF00046010196909346018093450180E090E074
:101C0000892B09F4D7CD0E949C03882309F4CFCDFA
:101C10000E940000CCCD80912F01909130010E9454
:101C20009704C0CF8091310190913201F8CF80911B
:101C3000330190913401F3CF8091350190913601B9
:101C4000EECF8091370190913801E9CF8091390131
:101C500090913A01E4CF80913B0190913C01DFCF1C
:101C600080913D0190913E010E94970491E09983FB
:101C700099CF80913F01909140010E949704E1E04B
:101C8000E98390CF80914101909142010E94970495
:101C9000F1E0F98387CF80914301909144010E9444
:101CA000970421E029837ECF80902D0190902E0112
:101CB000F4016481758187810E94460421E0F4016A
:101CC000218780912B0190912C018DCFEE0FFF1F6A
:101CD0000590F491E02D09945058BB27AA270E9443
:101CE000840E0C94F70F0E94E90F38F00E94F00F59
:101CF00020F039F49F3F19F426F40C94E60F0EF40B
:101D0000E095E7FB0C94E00FE92F0E94081058F3D0
:101D1000BA17620773078407950720F079F4A6F5D0
:101D20000C942A100EF4E0950B2EBA2FA02D0B0167
:101D3000B90190010C01CA01A0011124FF27591B10
:101D400099F0593F50F4503E68F11A16F040A22F16
:101D5000232F342F4427585FF3CF46953795279587
:101D6000A795F0405395C9F77EF41F16BA0B620B86
:101D7000730B840BBAF09150A1F0FF0FBB1F661FCD
:101D8000771F881FC2F70EC0BA0F621F731F841F10
:101D900048F4879577956795B795F7959E3F08F036
:101DA000B0CF9395880F08F09927EE0F97958795F8
:101DB00008950E94BC0F08F481E008950E94F20E7D
:101DC0000C94F70F0E94F00F58F00E94E90F40F0BA
:101DD00029F45F3F29F00C94E00F51110C942B1063
:101DE0000C94E60F0E94081068F39923B1F3552371
:101DF00091F3951B550BBB27AA276217730784071E
:101E000038F09F5F5F4F220F331F441FAA1FA9F3B3
:101E100035D00E2E3AF0E0E832D091505040E695A1
:101E2000001CCAF72BD0FE2F29D0660F771F881F02
:101E3000BB1F261737074807AB07B0E809F0BB0BF5
:101E4000802DBF01FF2793585F4F3AF09E3F510509
:101E500078F00C94E00F0C942B105F3FE4F3983E65
:101E6000D4F3869577956795B795F7959F5FC9F7F2
:101E7000880F911D9695879597F90895E1E0660F73
:101E8000771F881FBB1F621773078407BA0720F0EC
:101E9000621B730B840BBA0BEE1F88F7E095089555
:101EA0000E94101088F09F5798F0B92F9927B751CA
:101EB000B0F0E1F0660F771F881F991F1AF0BA95EE
:101EC000C9F714C0B13091F00E942A10B1E0089512
:101ED0000C942A10672F782F8827B85F39F0B93F04
:101EE000CCF3869577956795B395D9F73EF49095A1
:101EF0008095709561957F4F8F4F9F4F0895E8941F
:101F000009C097FB3EF490958095709561957F4F41
:101F10008F4F9F4F9923A9F0F92F96E9BB279395EF
:101F2000F695879577956795B795F111F8CFFAF4FF
:101F3000BB0F11F460FF1BC06F5F7F4F8F4F9F4F30
:101F400016C0882311F096E911C0772321F09EE88E
:101F5000872F762F05C0662371F096E8862F70E0F4
:101F600060E02AF09A95660F771F881FDAF7880FCE
:101F70009695879597F90895990F0008550FAA0B24
:101F8000E0E8FEEF16161706E807F907C0F012168C
:101F90001306E407F50798F0621B730B840B950B8F
:101FA00039F40A2661F0232B242B252B21F40895E4
:101FB0000A2609F4A140A6958FEF811D811D089581
:101FC00097F99F6780E870E060E008959FEF80ECEC
:101FD000089500240A94161617061806090608958F
:101FE00000240A9412161306140605060895092EF5
:101FF0000394000C11F4882352F0BB0F40F4BF2B64
:1020000011F460FF04C06F5F7F4F8F4F9F4F0895A3
:1020100057FD9058440F551F59F05F3F71F0479599
:10202000880F97FB991F61F09F3F79F0879508957E
:10203000121613061406551FF2CF4695F1DF08C09D
:10204000161617061806991FF1CF869571056105BA
:1020500008940895E894BB2766277727CB0197F962
:1020600008950E94BC0F08F48FEF08950E94491054
:102070000C94F70F0E94E90F38F00E94F00F20F047
:10208000952311F00C94E00F0C94E60F11240C949E
:102090002B100E94081070F3959FC1F3950F50E02C
:1020A000551F629FF001729FBB27F00DB11D639F0A
:1020B000AA27F00DB11DAA1F649F6627B00DA11DB0
:1020C000661F829F2227B00DA11D621F739FB00D56
:1020D000A11D621F839FA00D611D221F749F3327C6
:1020E000A00D611D231F849F600D211D822F762F5F
:1020F0006A2F11249F5750409AF0F1F088234AF03C
:10210000EE0FFF1FBB1F661F771F881F91505040A7
:10211000A9F79E3F510580F00C94E00F0C942B1012
:102120005F3FE4F3983ED4F3869577956795B7952E
:10213000F795E7959F5FC1F7FE2B880F911D969548
:10214000879597F908950F931F93CF93DF9382306C
:10215000910510F482E090E0E091E903F091EA0348
:1021600030E020E0B0E0A0E0309799F4211531058F
:1021700009F44AC0281B390B24303105D8F58A816F
:102180009B816115710589F1FB0193838283FE01B7
:1021900011C0408151810281138148175907E0F035
:1021A0004817590799F4109761F012960C931297FB
:1021B00013961C933296CF01DF91CF911F910F910F
:1021C00008950093E9031093EA03F4CF2115310534
:1021D00051F04217530738F0A901DB019A01BD0104
:1021E000DF01F801C1CFEF01F9CF9093EA038093AB
:1021F000E903CDCFFE01E20FF31F819391932250AB
:10220000310939832883D7CF2091E7033091E80340
:10221000232B41F420910201309103013093E80314
:102220002093E70320910001309101012115310530
:1022300041F42DB73EB74091040150910501241B94
:10224000350BE091E703F091E803E217F307A0F400
:102250002E1B3F0B2817390778F0AC014E5F5F4FFC
:102260002417350748F04E0F5F1F5093E803409343
:10227000E703819391939FCFF0E0E0E09CCFCF9371
:10228000DF930097E9F0FC01329713821282A0914C
:10229000E903B091EA03ED0130E020E01097A1F4EA
:1022A00020813181820F931F2091E7033091E80351
:1022B0002817390709F061C0F093E803E093E703BA
:1022C000DF91CF910895EA01CE17DF07E8F54A8143
:1022D0005B819E0141155105B1F7E901FB83EA835A
:1022E00049915991C40FD51FEC17FD0761F4808106
:1022F00091810296840F951FE901998388838281D9
:1023000093819B838A83F0E0E0E012968D919C910B
:1023100013970097B9F52D913C911197CD01029635
:10232000820F931F2091E7033091E80328173907A4
:1023300039F6309751F51092EA031092E903B09301
:10234000E803A093E703BCCFD383C28340815181CC
:10235000840F951FC817D90761F44E5F5F4F8881BE
:102360009981480F591F518340838A819B819383B0
:1023700082832115310509F0B0CFF093EA03E09391
:10238000E9039ECFFD01DC01C0CF13821282D7CFBB
:04239000F894FFCFEF
:102394000000EB038000000000000201D5005C0394
:1023A400AB00CE00BB00AC0000000000D2032F0342
:0A23B4005F031F0490036E03820311
:00000001FF
